:100000000C943E000C9494010C9453000C945300F7
:100010000C9453000C9453000C9453000C94530014
:100020000C9453000C9453000C9453000C94530004
:100030000C9453000C9453000C9453000C945300F4
:100040000C9453000C9453000C9453000C945300E4
:100050000C9453000C9453000C9453000C945300D4
:100060000C9453000C9453000C9453000C945300C4
:100070000C9453000C9453000C94530011241FBE95
:10008000CFEFD0E1DEBFCDBF11E0A0E0B1E0E2ED07
:10009000F3E002C005900D92AA34B107D9F70E948F
:1000A0004A010C94E7010C94000085B1806485B985
:1000B000000085B18F7B85B90895CF93DF93D82F4A
:1000C000662321F085B1806185B903C085B18F7E3B
:1000D00085B985B18F7D85B984B18F6084B9C5B18B
:1000E000C07F8D2F82958F708C2B85B90E94550013
:1000F000DF70DC2BD5B90E945500CF60C5B9DF9108
:10010000CF910895882321F085B1806185B903C01E
:1001100085B18F7E85B985B1806285B984B1807FD4
:1001200084B985B1806485B9000093B19295907FC0
:1001300085B18F7B85B9000085B1806485B90000E9
:1001400083B18F7025B12F7B25B9892B089580E06D
:100150000E9482008823DCF300C000C080E00E947F
:1001600082000895CF93C82F0E94A70060E08C2FD3
:100170000E945D00CF91089581E00E94B200089531
:10018000CF93C82F0E94A700CA3049F4803410F4DE
:1001900080E401C080E080580E94B20004C061E0A9
:1001A0008C2F0E945D00CF910895CF93DF93FC01C7
:1001B00003C00E94C000FE01EF01219680818111E1
:1001C000F8CFDF91CF910895CF93C82F84B18F6777
:1001D00084B98FE99FE00197F1F700C0000085B175
:1001E000826085B985B1816085B90E94550081EE34
:1001F00094E00197F1F700C000000E94550095E1DE
:100200009A95F1F700000E94550085E18A95F1F773
:10021000000085B18E7F85B90E94550095E19A95C1
:10022000F1F7000088E20E94B20088E00E94B2006C
:100230000E94BC0086E00E94B2008C2F0E94B20097
:10024000CF91089599B1E7EAF1E63197F1F700C04F
:10025000000089B1892381FDF5CF80E091E00E9403
:10026000D500FFE32DE083E0F15020408040E1F72E
:1002700000C000000E94BC0086E091E00E94D50012
:100280009FE3EDE0F3E09150E040F040E1F700C083
:100290000000089581E08DBB78948CE00E94E4001A
:1002A00080E191E00E94D5002FE38DE093E02150A2
:1002B00080409040E1F700C0000084E191E00E949E
:1002C000D5002FE38DE093E0215080409040E1F78E
:1002D00000C0000089E191E00E94D5002FE38DE08D
:1002E00093E0215080409040E1F700C000008FE192
:1002F00091E00E94D5002FE38DE093E021508040F3
:100300009040E1F700C0000087E491E00E94D50032
:100310002FE38DE093E0215080409040E1F700C052
:1003200000000E942201FDCF1F920F920FB60F9284
:1003300011242F933F934F935F936F937F938F93EA
:100340009F93AF93BF93EF93FF9383E291E00E945B
:10035000D5002FE38DE093E0215080409040E1F7FD
:1003600000C000000E94BC0089E291E00E94D5001C
:100370002FE38DE093E0215080409040E1F700C0F2
:1003800000000E94BC008FE291E00E94D5002FE3A4
:100390008DE093E0215080409040E1F700C00000E4
:1003A0000E94BC0088E391E00E94D500FF91EF918C
:1003B000BF91AF919F918F917F916F915F914F917D
:1003C0003F912F910F900FBE0F901F901895F894AA
:0203D000FFCF5D
:1003D2003E20594553004D4520544F4F203A2900A5
:1003E200444F2000594F5520004C4F564520005392
:1003F2004542003E204E4F210057524F4E47004784
:100402004F20414741494E00444F20594F55204CFF
:0A0412004F5645205345423F0A00B3
:00000001FF
