S01E00004763634170706C69636174696F6E4C434446756E63742E73726563B2
S11300000C9468000C947D000C947D000C947D008D
S11300100C947D000C947D000C947D000C947D0068
S11300200C947D000C947D000C947D000C947D0058
S11300300C947D000C947D000C947D000C947D0048
S11300400C947D000C947D000C947D000C947D0038
S11300500C947D000C947D000C947D000C947D0028
S11300600C947D000C947D000C947D000C947D0018
S11300700C947D000C947D000C947D004C696E659D
S11300802032206C6F6E676572207468616E203157
S1130090342063686172616374657273004C696EC5
S11300A0652031206C6F6E676572207468616E2004
S11300B0313420636861726163746572730A000786
S11300C00813141413080700100808080810000087
S11300D011241FBECFEFD0E1DEBFCDBF11E0A0E001
S11300E0B1E0E8EEF3E002C005900D92AA32B10748
S11300F0D9F70E944E010C94F2010C9400002E9A40
S113010000002E980895CF93DF93D82F662311F023
S11301102C9A01C02C982D9884B18F6084B9C5B1F4
S1130120C07F8D2F82958F708C2B85B90E947F00A4
S1130130DF70DC2BD5B90E947F00CF60C5B9DF9199
S1130140CF9108952C982D9A84B1807F84B92E9AEA
S1130150000093B12E9800002E9A000023B12F7056
S1130160892F8295807F2E98822B08950E94A20069
S113017087FDFCCF00C000C00C94A200CF93C82F11
S11301800E94B60060E08C2FCF910C948300CF9333
S1130190C82F0E94B60061E08C2FCF910C9483008D
S11301A0611102C0805801C080540C94BE0081E0EB
S11301B00C94BE00CF93C82F0E94B600CA3049F4F5
S11301C0803410F080E001C080E48058CF910C941A
S11301D0BE0061E08C2FCF910C948300CF93DF930A
S11301E0EC018991882319F00E94DA00FACFDF919B
S11301F0CF910895CF93DF93FC018491EF01219671
S1130200882321F00E94DA00FE01F7CFDF91CF911D
S11302100895CF93C82F84B18F6784B98FE99FE085
S11302200197F1F700C00000299A289A0E947F00E4
S113023081EE94E00197F1F700C000000E947F0076
S113024095E19A95F1F700000E947F0085E18A9577
S1130250F1F7000028980E947F0095E19A95F1F744
S1130260000088E20E94BE0088E00E94BE000E9456
S1130270D70086E00E94BE008C2FCF910C94BE0064
S113028099B1E1EEF4E03197F1F700C0000089B1D3
S1130290892382FDF5CF4A9BFECF0895CF93DF9348
S11302A0CDB7DEB727970FB6F894DEBF0FBECDBF2C
S11302B052985A9A8CE00E9409010E94D70080E06B
S11302C091E00E94EE0081E191E00E94EE0061E085
S11302D087E00E94D0008AE30E94DA000E94400175
S11302E08EE00E94BE0088E191E00E94EE000E9430
S11302F040010E94D7008DE990E00E94FA008CE74B
S113030090E00E94FA0088E10E94BE000E94400131
S11303108CE00E94BE000E94D7004AE0BE016F5FDD
S11303207F4F86E890E00E94BD01CE0101960E94B5
S1130330EE000E9440010E94D7008EE191E00E94ED
S1130340EE0080E40E94BE000FEB10E0F8018491FF
S11303500E94C7000F5F1F4FF0E00F3C1F07B1F76B
S113036061E080E00E94D00080E00E94DA0081E039
S11303700E94DA000E944001A0CFBB274A3031F42A
S1130380992322F4BDE2909581959F4F0C94C90165
S1130390BB27FB015527AA27880F991FAA1FA4175B
S11303A010F0A41B83955051B9F7A05DAA3308F04F
S11303B0A95DA193009779F7B111B1931192CB0183
S11303C00C94E201DC01FC01672F71917723E1F7C2
S11303D0329704C07C916D9370836291AE17BF070E
S10B03E0C8F30895F894FFCF5F
S11303E84C43442054657374204C696E6520310A6B
S11303F8004C696E652032004375724F6E00436F7E
S10D0408707972696768743A200085
S9030000FC
